:100000000C9481000C94A3000C94A3000C94A30006
:100010000C94A3000C94A3000C94A3000C94A300D4
:100020000C94A3000C94A3000C94A3000C94A300C4
:100030000C94A3000C94A3000C94A3000C94A300B4
:100040000C94A3000C94A3000C94A3000C94A300A4
:100050000C94A3000C94A3000C94A3000C94A30094
:100060000C94A3000C94A3000C94A3000C94A30084
:100070000C94A3000C94A3000C94A3000C94A30074
:100080000C94E8110C94A3000C94A3000C94A3000E
:100090000C94A3000C94A3000C94A3000C94A30054
:1000A0000C94A3000C94A3000C94A3000C94A30044
:1000B0000C94A3000C94A3000C94A3000C94A30034
:1000C0000C94A3000C94A3000C94A3000C94A30024
:1000D0000C94A3000C94A3000C94A3000C94A30014
:1000E0000C94A30005A84CCDB2D44EB93836A90261
:1000F0000C50B9918688083CA6AAAA2ABE00000026
:10010000803F11241FBECFEFD1E2DEBFCDBF00E0A4
:100110000CBF12E0A0E0B2E0E0E1FFE300E00BBFC3
:1001200002C007900D92A836B107D9F71BBE1BE19C
:10013000A8E6B2E001C01D92A133B107E1F70E9429
:100140002C040C94861F0C940000AFE7B2E086E00C
:100150009AEFE9E7F2E040E050E0BA010DEC1CEC68
:100160002CEC3DE31F9902C08C9305C01E9902C080
:100170009C9301C01C92199905C0008311832283AE
:100180003383F0CF4083518362837383EBCFCF936C
:10019000DF930F920F92CDB7DEB781E792E004961E
:1001A0009A838983EFE7F2E08081992787FD909514
:1001B000329720813181820F931F91838083F1E0F8
:1001C00088369F072CF0885691409183808308C021
:1001D000992334F488599E4FEDE7F2E091838083B0
:1001E000E9E7F2E0C080D180E280F380349660815C
:1001F0007181882777FD8095982F0E94E51C2BED53
:100200003FE049E450E40E94D21D20E030E044E3A6
:1002100053E40E944A1CB62E872E182F092F862FD2
:10022000982DA12FB02FBC01CD010E94351EDC01FD
:10023000CB019C01AD015058C701B6010E94D21DEF
:10024000E1E7F2E020813181428153810E94DF1B8E
:10025000462E372E282E792E862F932DA22DB72DA0
:10026000E1E7F2E080839183A283B3838B2D982D05
:10027000A12FB02FBC01CD010E94471CDC01CB0196
:100280009C01AD015058C701B6010E94D21DE5E79F
:10029000F2E020813181428153810E94DF1B662E72
:1002A000572EF82EE92E862F952DAF2DBE2DE5E782
:1002B000F2E080839183A283B383322D842D932D2A
:1002C000A22DB72DBC01CD01042D132D232F3B2FC3
:1002D000A90198010E94D21D4B015C013F2D862D82
:1002E000952DAF2DBE2DBC01CD01062D152D232F33
:1002F0003B2FA90198010E94D21D9B01AC01C501B1
:10030000B4010E94DF1B162F072FC82E892E862FBF
:10031000902FAC2DB82DBC01CD0120E030E040E0A5
:1003200051E40E94CE1D1816DCF560E070E080E01C
:1003300091E4E02F012F1E2F2C2D382DA9019801BB
:100340000E944A1CC62E872ED82EB92E842D932D9E
:10035000A22DB72DBC01CD010C2D182D2D2D3B2D1F
:10036000A90198010E94D21DDC01CB01E1E7F2E076
:1003700080839183A283B383862D952DAF2DBE2DCF
:10038000BC01CD012D2D3B2DA90198010E94D21D4C
:10039000DC01CB01E981FA8180839183A283B3835D
:1003A000E9E6F2E060817181828193813896208153
:1003B0003181428153810E94DF1B062F172FE82EC7
:1003C000F92E862F912FAE2DBF2DE9E6F2E0808326
:1003D0009183A283B38334966081718182819381FA
:1003E000389620813181428153810E94DF1BDC01DC
:1003F000CB01EDE6F2E080839183A283B383802F6B
:10040000912FAE2DBF2DBC01CD0120E030E0A90120
:100410000E94431C8823ACF4802F912FAE2DBF2D5A
:10042000BC01CD0120E030E048E454E40E94DF1B31
:10043000DC01CB01E9E6F2E080839183A283B38300
:1004400022C0802F912FAE2DBF2DBC01CD0120E009
:1004500030E048E454E40E94CE1D1816A4F4802F26
:10046000912FAE2DBF2DBC01CD0120E030E048E43E
:1004700054E40E94DE1BDC01CB01E9E6F2E080835C
:100480009183A283B383EDE6F2E0C080D180E28065
:10049000F380C701B60120E030E0A9010E94431CAF
:1004A00088238CF4C701B60120E030E046E154E433
:1004B0000E94DF1BDC01CB01EDE6F2E0808391833B
:1004C000A283B3831AC0C701B60120E030E046E141
:1004D00054E40E94CE1D181684F4C701B60120E032
:1004E00030E046E154E40E94DE1BDC01CB01EDE686
:1004F000F2E080839183A283B383809087029090FF
:1005000088028114910409F4F1C000E010E0F401C4
:10051000818D928D0A96928F818FF3E0883E9F079E
:10052000C8F1809185029091860260E070E04FEF03
:100530005FEF20E00E942814F40180810E94460CA5
:100540000115110569F0F401838D948DF801948FE4
:10055000838FC4010E944F0DF801838C948C0EC0D0
:10056000F401838D948D9093880280938702C40157
:100570000E944F0D809087029090880280918502A2
:100580009091860260E070E040E050E020E00E9440
:100590002B13A8C0F401618172818381948121852C
:1005A0003285438554850E94DF1B162F072FF82EB6
:1005B000E92E862F902FAF2DBE2DF40181839283DB
:1005C000A383B4836581768187819085258536856F
:1005D000478550890E94DF1BDC01CB01F401858334
:1005E0009683A783B087812F902FAF2DBE2DBC019E
:1005F000CD0120E030E0A9010E94431C8823A4F42F
:10060000812F902FAF2DBE2DBC01CD0120E030E019
:1006100048E454E40E94DF1BDC01CB01F401818338
:100620009283A383B48321C0812F902FAF2DBE2D41
:10063000BC01CD0120E030E048E454E40E94CE1D2E
:1006400018169CF4812F902FAF2DBE2DBC01CD012B
:1006500020E030E048E454E40E94DE1BDC01CB01E2
:10066000F40181839283A383B483F401C580D6808F
:10067000E780F084C701B60120E030E0A9010E94C4
:10068000431C882384F4C701B60120E030E046E132
:1006900054E40E94DF1BDC01CB01F40185839683C7
:1006A000A783B08719C0C701B60120E030E046E15A
:1006B00054E40E94CE1D18167CF4C701B60120E058
:1006C00030E046E154E40E94DE1BDC01CB01F40182
:1006D00085839683A783B087F401938D848D8401ED
:1006E000892E982E8114910409F011CF80908902EF
:1006F00090908A028114910409F4A9C0F4016181E7
:1007000072818381948121853285438554850E943D
:10071000DF1B162F072FF82EE92E862F902FAF2DD7
:10072000BE2DF40181839283A383B4836581768196
:100730008781908525853685478550890E94DF1BF6
:10074000DC01CB01F40185839683A783B087812FD9
:10075000902FAF2DBE2DBC01CD0120E030E0A901CE
:100760000E94431C8823A4F4812F902FAF2DBE2D0F
:10077000BC01CD0120E030E048E454E40E94DF1BDE
:10078000DC01CB01F40181839283A383B48321C074
:10079000812F902FAF2DBE2DBC01CD0120E030E088
:1007A00048E454E40E94CE1D18169CF4812F902F2B
:1007B000AF2DBE2DBC01CD0120E030E048E454E473
:1007C0000E94DE1BDC01CB01F40181839283A383B1
:1007D000B483F401C580D680E780F084C701B601F8
:1007E00020E030E0A9010E94431C882384F4C70163
:1007F000B60120E030E046E154E40E94DF1BDC015A
:10080000CB01F40185839683A783B08719C0C70104
:10081000B60120E030E046E154E40E94CE1D1816F7
:100820007CF4C701B60120E030E046E154E40E94C8
:10083000DE1BDC01CB01F40185839683A783B0879F
:10084000F401838C948C8114910409F057CF8AE0D1
:1008500090E00E94E318A6CC14B881E08093B00029
:100860000E94C913909386028093850280E293E0F0
:1008700068E572E00E945B0B789485EA90E060E0A6
:1008800072E040E550E020E030E001E00F2EFFE8AC
:10089000EF2EF2E0FF2EF02DCC24DD24AA24BB2481
:1008A0000E94891585E997E062E072E04AEF50E026
:1008B00020E030E002E00F2EFDE8EF2EF2E0FF2E08
:1008C000F02D0E94891587EC90E064E072E048EC1E
:1008D00050E020E030E004E00F2EFBE8EF2EF2E0E5
:1008E000FF2EF02D0E9489158BE799E066E072E0FB
:1008F00040E456E020E030E003E0EE24FF240E94D4
:10090000891589EC9BE168E072E048EC50E020E05A
:1009100030E005E00E9489150E944417FFCFCF9375
:10092000DF93C0918902D0918A02209791F088814B
:100930000E94460C8091890290918A02FC01C38D2D
:10094000D48D0E944F0DD0938A02C09389022097C4
:1009500071F7809191020E94760CC0918702D0912C
:100960008802209791F088810E94460C809187022E
:1009700090918802FC01C38DD48D0E944F0DD093BD
:100980008802C0938702209771F7809168020E94C5
:10099000460C809192020E94460CDF91CF910895FF
:1009A0000F931F93CF93DF93EC010E941D1FBE0195
:1009B000685770400E947F1E8C010E941D1F62E0DC
:1009C00070E00E947F1EAC019E0128583F4F429F5D
:1009D000C001439F900D529F900D1124800F911FD5
:1009E000DF91CF911F910F910895823071F0833084
:1009F00019F0813039F403C084E690E008958FE067
:100A000090E0089580E991E0089588E290E00895EB
:100A10002F923F924F925F926F927F928F929F920E
:100A2000AF92BF92CF92DF92EF92FF920F931F93FC
:100A3000CF93DF93CDB7DEB760970FB6F894DEBFE4
:100A40000FBECDBF2B013C0129833A834B835C83CE
:100A5000ED82FE820F831887A986BA86CB86DC8654
:100A6000DFA08DE190E00E94AF0C5C010E941D1F91
:100A70008C018D2D0E94F5047C01C80163E070E0BB
:100A80000E947F1EFC01EE0FFF1FEC5AFD4F2080DD
:100A90003180C301B2010E94B71C6D877E878F87AA
:100AA000988B69817A818B819C810E94B71C8B0114
:100AB0009C01C1016D857E85A80194018701CC242C
:100AC000C3940E94840B682FD5018C93F501418259
:100AD00052826382748289819A81AB81BC818583D1
:100AE0009683A783B0878D819E81AF81B8858187EA
:100AF0009287A387B48789859A85AB85BC858587CE
:100B00009687A787B08B968A858A8EA1878BD08E91
:100B10008091890290918A02948F838F80919102B3
:100B20000E94560C8A2D9B2D60960FB6F894DEBF5E
:100B30000FBECDBFDF91CF911F910F91FF90EF902E
:100B4000DF90CF90BF90AF909F908F907F906F90ED
:100B50005F904F903F902F9008952F923F924F9229
:100B60005F926F927F928F929F92AF92BF92CF923D
:100B7000DF92EF92FF920F931F93CF93DF93CDB746
:100B8000DEB728970FB6F894DEBF0FBECDBF109228
:100B900088021092870210928A02109289028FEFC7
:100BA000809391028AE092E060E971E04CE251E0CA
:100BB00020E030E000E213E00F2EF8E5EF2EF2E047
:100BC000FF2EF02DCC240E94840B8093920286B5D8
:100BD00090E00E94221F0E94500C809391020F2EE1
:100BE000F5E02F2E3324F02D80E991E00E94D0040F
:100BF0002C018CE291E00E94D0047C010E941D1F18
:100C00006C010E941D1F5C010E941D1F4C010E946F
:100C10001D1F9C838B8300D00F922DB73EB72F5F93
:100C20003F4F3A832983B201882777FD8095982F1B
:100C30000E94E51C6D837E838F839887B701882788
:100C400077FD8095982F0E94E51C2B013C01C60181
:100C500064E170E00E947F1EFC01BF01882777FDE0
:100C60008095982F0E94E51C20E030E040EA50E497
:100C70000E944A1C20E030E040E050E40E94DE1B6D
:100C80007B018C01C50164E170E00E947F1E9C0124
:100C9000B901882777FD8095982F0E94E51C20E0F8
:100CA00030E040EA50E40E944A1C20E030E040E09E
:100CB00050E40E94DE1B5B016C01C40168E671E038
:100CC0000E947F1E4C018B819C816EE170E00E942E
:100CD0007F1EFC01BF01882777FD8095982F0E9419
:100CE000E51C20E030E040EA50E40E944A1C20E08D
:100CF00030E040E450E40E94DE1B0E94B21CE98117
:100D0000FA81608323E021838091890290918A0295
:100D1000938382836D817E818F819885A301920167
:100D20000E94080590938A02809389020894210802
:100D300031080F900F900F900F902114310409F09B
:100D400053CF84E192E060E971E04CE251E020E0B1
:100D500030E00CE210E00F2EFCE2EF2EFF24F02D2D
:100D6000CC24C3940E94840B8093680280E090E0BE
:100D7000A8ECB3E48093690290936A02A0936B029B
:100D8000B0936C0280E090E0A6E9B3E480936D023A
:100D900090936E02A0936F02B093700280E090E097
:100DA000DC018093710290937202A0937302B0935E
:100DB00074028093750290937602A0937702B093A9
:100DC00078028093790290937A02A0937B02B09389
:100DD0007C0210927E0210927D0210927F02289671
:100DE0000FB6F894DEBF0FBECDBFDF91CF911F913C
:100DF0000F91FF90EF90DF90CF90BF90AF909F90BA
:100E00008F907F906F905F904F903F902F900895BC
:100E10004F925F926F927F928F929F92AF92BF920A
:100E2000CF92DF92EF92FF920F931F93CF93DF93B6
:100E3000CDB7DEB760970FB6F894DEBF0FBECDBF5B
:100E40002B013C0129833A834B835C83ED82FE8234
:100E50000F831887A986BA86CB86DC868DE190E061
:100E60000E94AF0C5C01C301B2010E94B71C6D87E8
:100E70007E878F87988B69817A818B819C810E9484
:100E8000B71C6B017C0120917D0230917E028DE1C7
:100E900092E06D857E85A6010AE110E00F2EFAE151
:100EA000EF2EFF24F02DCC24C3940E94840BD50197
:100EB0008C93F501418252826382748289819A8186
:100EC000AB81BC8185839683A783B0878D819E810A
:100ED000AF81B88581879287A387B48789859A85F2
:100EE000AB85BC8585879687A787B08B8AE1808F85
:100EF000128E118E948E838E8A2D9B2D60960FB646
:100F0000F894DEBF0FBECDBFDF91CF911F910F913F
:100F1000FF90EF90DF90CF90BF90AF909F908F9019
:100F20007F906F905F904F900895CF93DF93CDB7F0
:100F3000DEB728970FB6F894DEBF0FBECDBF0E9474
:100F40007B170F2EFDE72F2EF2E03F2EF02DC10173
:100F500044979E838D83D1015097B887AF831899AA
:100F60007FC0809185029091860260E070E04FEF33
:100F70005FEF20E00E942814F101608171818827D1
:100F800077FD8095982F0E94E51C2BED3FE049E40A
:100F900050E40E94D21D20E030E044E353E40E947C
:100FA0004A1CA62E872E182F092F862F982DA12F89
:100FB000B02FBC01CD010E94351E6B017C018A2D32
:100FC000982DA12FB02FBC01CD010E94471C4B01D1
:100FD0005C01AD81BE814D905D906D907C90AF8144
:100FE000B8858D919D910D90BC91A02D89839A8398
:100FF000AB83BC83C701B601905820E030E040ECE1
:1010000050E40E94D21D7B018C01C501B4019058AF
:1010100020E030E040EC50E40E94D21D5B016C0106
:101020008090870290908802C301B20129813A81A1
:101030004B815C810E94080790938802809387020D
:10104000809185029091860260E070E040E050E07F
:1010500020E00E942B1384EF91E00E94E3187FCFE1
:101060008AE090E00E94E3187ACF2F923F924F924D
:101070005F926F927F928F929F92AF92BF92CF9228
:10108000DF92EF92FF920F931F93CF93DF93CDB731
:10109000DEB76A970FB6F894DEBF0FBECDBF9C8354
:1010A0008B83623008F40EC1862F90E00197813067
:1010B000910569F08230910529F426E030E083E063
:1010C00090E009C023E030E082E090E004C029E035
:1010D00030E084E090E0482F440F542F550F550F17
:1010E000450FE42EFF24E7FCF094FE82ED82422FB0
:1010F000440F542F550F550F450F042F112707FD8F
:101100001095188B0F870F2EF3E02F2E3324F02D20
:101110007C010027F7FC0095102FE98AFA8A0B8BD7
:101120001C8BC901AA2797FDA095BA2F8D8B9E8B8A
:10113000AF8BB88F762E7A943A822982AB81BC81AC
:10114000ED90FD900D911C911397EF82F886098721
:101150001A871496ED90FD900D911C911797EB86D0
:10116000FC860D871E870E941D1F8C0169897A8964
:101170008B899C890E94E51C6B017C01C8016D81F3
:101180007E810E947F1EFC01BF01882777FD80952C
:10119000982F0E94E51C20E030E040EA50E40E94D5
:1011A0004A1CA70196010E94DE1B662E572E482E70
:1011B000292E0E941D1F6D817E810E947F1E8C0141
:1011C000B801882777FD8095982F0E94E51C20E0C4
:1011D00030E040EA50E40E944A1CA70196010E94B8
:1011E000DE1BB62EA72E982E892E0E941D1F6C0185
:1011F0000E941D1F9C0100D00F920DB71EB70F5FFC
:101200001F4FC60168E671E00E947F1E9A8F898F8A
:10121000C9016F8578890E947F1E9C01B9018827CA
:1012200077FD8095982F0E94E51C20E030E040EA91
:1012300050E40E944A1C6B017C016D897E898F8974
:10124000988D0E94E51C9B01AC01C701B6010E946C
:10125000DE1B0E94B21CD8016C9311967C921197F0
:101260008091890290918A0213969C938E93129793
:101270006F81788589859A852B853C854D855E852E
:10128000C62CD52CE42CF22C87017601A92DB82D83
:101290008B2C9A2CAA2EBB2E65015401898C9A8C1A
:1012A0000E94080590938A0280938902E981FA815D
:1012B0003197FA83E9830F900F900F900F9030973A
:1012C00009F03CCF6A960FB6F894DEBF0FBECDBFD3
:1012D000DF91CF911F910F91FF90EF90DF90CF9012
:1012E000BF90AF909F908F907F906F905F904F9046
:1012F0003F902F900895CF93DF93CDB7DEB7299716
:101300000FB6F894DEBF0FBECDBF80918B029091D7
:101310008C020E94AA1980918D0290918E020E94E7
:10132000AA1980918F02909190020E94AA190E949E
:10133000AD0580918B0290918C020E94B81680912D
:101340008D0290918E020E94B81680918F0290912A
:1013500090020E94B8160F2EF8E64F2EF2E05F2E94
:10136000F02D0F2EF5E12F2E3324F02D240C351CFB
:10137000809185029091860260E070E04FEF5FEF10
:1013800020E00E942814F10160817181F2018081C6
:101390000E94FE0BE9E6F2E0608171818281938117
:1013A0000E94B71C6B017C01EDE6F2E06081718167
:1013B000828193810E94B71C8B019C01F201808184
:1013C000B601A8010E94DC0BE0908702F090880231
:1013D000E114F10409F498C066247724F7016181CF
:1013E0007281838194810E94B71C4B015C01F701DB
:1013F00065817681878190850E94B71C8B019C0155
:10140000F7018081B401A8010E94DC0BF701808103
:1014100060919102AE014F5F5F4F21E00E94800C0E
:10142000882309F467C0F70180810E94460C61148B
:10143000710469F0F701838D948DF301948F838F8C
:10144000C7010E944F0DF301E38CF48C0EC0F7012D
:10145000838D948D9093880280938702C7010E94A8
:101460004F0DE0908702F0908802C0908902D090E2
:101470008A02C114D10409F443C09981F601808124
:10148000891789F5F3C0F8018081891759F548015A
:10149000DE011296319688E001900D928150E1F7BD
:1014A000F401B08C80810E94460CC114D10451F02B
:1014B000F401838D948DF601948F838FC4010E9473
:1014C0004F0D0AC0F801838D948D90938A0280930A
:1014D0008902C8010E944F0DCE0102966B2D0E9419
:1014E00035080EC06801F601038D148D0115110534
:1014F00051F606C0F701938D848D3701E92EF82E41
:10150000E114F10409F06ACF0091890210918A0276
:101510000115110521F1F8016181728183819481A6
:101520000E94B71C4B015C01F801658176818781BF
:1015300090850E94B71C6B017C01F8018081B40189
:10154000A6010E94DC0BF8016589768980810E94E2
:10155000FE0BF801038D148D01151105E1F6F20162
:10156000808160919102AE014F5F5F4F21E00E9448
:10157000800C882339F48091890290918A02009727
:1015800009F064C080918B0290918C020E94AA198C
:1015900080918D0290918E020E94AA1980918F02F3
:1015A000909190020E94AA198091890290918A02DA
:1015B0000097C1F488E292E060E971E04CE251E00A
:1015C00024E130E000E911E00F2EFCE2EF2EF1E023
:1015D000FF2EF02D0F2EF4E6CF2EF02D0E94840B5F
:1015E000082F17C080E392E060E971E04CE251E01F
:1015F00020E030E000E911E00F2EFCE2EF2EF1E0F8
:10160000FF2EF02D0F2EF4E6CF2EF02D0E94840B2E
:10161000082F88EB9BE00E94E318802F0E94460C65
:101620000E948F040E94AD0580918B0290918C02E4
:101630000E94B81680918D0290918E020E94B81679
:1016400080918F02909190020E94B816809185023D
:101650009091860260E070E040E050E020E00E945F
:101660002B138AE090E00E94E31882CEDE011296EE
:10167000F601319688E001900D928150E1F7F60174
:10168000B08C80810E94460C86011CCFCF93DF93E3
:10169000EC018BE00E94A31B8881882331F0219606
:1016A0000E94A31B89918823D9F780E00E94A31B85
:1016B000DF91CF9108950F931F93CF93DF93182F4E
:1016C000092FC62FD72F80E096E940E054E264EF5F
:1016D00070E00E94681B0E94C11B8FEF0E94B91B23
:1016E0008AE00E94B91B802F0E94B91B812F0E94A3
:1016F000B91B8D2F0E94B91B8C2F0E94B91BDF9143
:10170000CF911F910F9108957F928F929F92AF92E8
:10171000BF92CF92DF92EF92FF920F931F93CF93DE
:10172000DF93EC01B62ED72E942EA52E722E832E8B
:1017300081E00E94A31B8881882331F021960E94BA
:10174000A31B89918823D9F780E00E94A31B8D2DCC
:101750000E94A31B8B2D0E94A31B8A2D0E94A31BFA
:10176000892D0E94A31B882D0E94A31B872D0E94F8
:10177000A31B812F0E94A31B802F0E94A31B8F2DD0
:101780000E94A31B8E2D0E94A31B8C2D0E94A31BC5
:101790008AEA82B90E94C11B9FEF92B9DF91CF9173
:1017A0001F910F91FF90EF90DF90CF90BF90AF907F
:1017B0009F908F907F900895FF920F931F93CF93E8
:1017C000DF93F82E162F072FC42FD52F82E00E940B
:1017D000A31B8F2D0E94A31B802F0E94A31B812F70
:1017E0000E94A31B8D2F0E94A31B8C2F0E94A31B62
:1017F000DF91CF911F910F91FF9008951F93CF9389
:10180000DF93182FC62FD72F83E00E94A31B812FB1
:101810000E94A31B8D2F0E94A31B8C2F0E94A31B31
:10182000DF91CF911F910895FF920F931F93CF9354
:10183000DF93F82E162F072FC42FD52F8DE00E948F
:10184000A31B8F2D0E94A31B802F0E94A31B812FFF
:101850000E94A31B8D2F0E94A31B8C2F0E94A31BF1
:10186000DF91CF911F910F91FF900895CF93DF9358
:10187000D82FC62F8CE00E94A31B8D2F0E94A31B84
:101880008C2F0E94A31BDF91CF910895CF93C82F77
:1018900084E00E94A31B8C2F0E94A31BCF9108956C
:1018A00085E00E94A31B0E94C11B0895CF93DF9384
:1018B000D82FC62F86E00E94A31B8D2F0E94A31B4A
:1018C0008C2F0E94A31BDF91CF910895CF93DF93BC
:1018D000D82FC62F87E00E94A31B8D2F0E94A31B29
:1018E0008C2F0E94A31BDF91CF910895CF93C82F17
:1018F00088E00E94A31B8C2F0E94A31BCF91089508
:10190000FF920F931F93CF93DF93D82FC62F042FEF
:10191000F52E122F89E00E94A31B8D2F0E94A31B7E
:101920008C2F0E94A31B112361F0C02FDF2D00E03C
:101930000E94C11B89938F3F59F00F5F0117C1F7B8
:1019400003C000E001C00F5F0E94C11B8F3FD9F7A9
:10195000802FDF91CF911F910F91FF9008950F93EA
:101960001F93CF93DF93EC010E9475178091930230
:101970008823F9F488E992E0909395028093940289
:10198000109297021092960280E098E190939B1A31
:1019900080939A1AEAE9FAE11292129290939B02CA
:1019A00080939A02F0939902E093980281E08093E9
:1019B0009302209709F462C09E012B5F3F4F24964B
:1019C00087E1CF3FD80708F05CC0E0919402F09126
:1019D0009502A4E9B2E002C0DF01FC01828193819B
:1019E0008217930720F4808191810097A9F7CAE1BB
:1019F000E839FC0709F448C08D919C9111978C013E
:101A00000B5F1F4F8081918111969C938E938281F1
:101A10009381821B930B8B30910518F1AF01420F1C
:101A2000531FDA0113969C938E931297338322836C
:101A300012962D913C91139764E972E001C0BD01AB
:101A4000EB01A881B98112968D919C911397821711
:101A50009307A8F3EA01B983A883DB0111965C938D
:101A60004E9380915A0290915B0222813381821BB6
:101A7000930B90935B0280935A0208C000E010E041
:101A800005C000E010E002C000E010E00E94531822
:101A9000802F912FDF91CF911F910F9108950F9378
:101AA0001F93CF93DF93EC01009739F18C01055020
:101AB00010400E947517F80122813381A4E9B2E039
:101AC00001C0DF01ED91FC91119782819381821712
:101AD0009307B8F32597F983E8830D931C938091BE
:101AE0005A0290915B022A813B81820F931F90934F
:101AF0005B0280935A020E945318DF91CF911F918D
:101B00000F91089580915A0290915B020895089573
:101B1000AF92BF92CF92DF92EF92FF920F931F93FB
:101B2000CF93DF936C01E62EF42E8AE190E00E94C1
:101B3000AF0C8C01009709F462C080919C1A9091BF
:101B40009D1A009739F510939D1A00939C1ACFE9BE
:101B5000DAE1CE010E94AD0FCE0109960E94AD0FD1
:101B6000C1EBDAE1CE010E94AD0F0F2EFAEBAF2EE2
:101B7000FAE1BF2EF02DC5010E94AD0F83EC9AE172
:101B80000E94AD0FD093CD1AC093CC1AB092CF1A49
:101B9000A092CE1ACE2DE110C1E0F801118E108E68
:101BA000C68BF78AC192D1927F01CF010E94BB0FF1
:101BB000C8010C960E94BB0FF80111870087138B98
:101BC000028B84E090E08C1B91099587848786893D
:101BD00090919E1A981710F480939E1A90E09C01A1
:101BE000220F331F220F331F220F331F820F931F29
:101BF0008156954EB7010E94BF0F81E001C08FEF63
:101C0000DF91CF911F910F91FF90EF90DF90CF90D8
:101C1000BF90AF9008950F931F93CF93DF938B01E5
:101C2000C091D01AD091D11AC80FD91F80919C1A97
:101C300090919D1A02960E942510E0919C1AF091B5
:101C40009D1AD383C2838091D01A9091D11AC8175C
:101C5000D90750F4BF016E5F7F4F8091CE1A9091EB
:101C6000CF1A0E94E80F09C0BF016E5F7F4F8091BD
:101C7000CC1A9091CD1A0E94E80F0115110549F078
:101C800060919C1A70919D1A645F7F4FC8010E94F9
:101C9000E80FDF91CF911F910F910895CF92DF92BE
:101CA000EF92FF920F931F93CF93DF938091C31A0C
:101CB0008823B9F10F2EF8ECEF2EFAE1FF2EF02D6C
:101CC0000F2EF3ECCF2EFAE1DF2EF02DF894D70192
:101CD000ED91FC91C681D781CE010C960E94251012
:101CE00078948E010E5F1F4FC8010E9425108E89C7
:101CF00090919E1A981710F480939E1A90E09C0180
:101D0000220F331F220F331F220F331F820F931F07
:101D10008156954EB8010E94BF0FF601808188233D
:101D2000A9F60E947B172091D21A3091D31A821BF8
:101D3000930B9093D51A8093D41A74C02091D01A23
:101D40003091D11A2F5F3F4F3093D11A2093D01A80
:101D500001979093D51A8093D41A2115310581F4F7
:101D60008091CC1A9091CD1A2091CE1A3091CF1A31
:101D70003093CD1A2093CC1A9093CF1A8093CE1A19
:101D8000E091CC1AF091CD1A8081882309F44AC0E1
:101D90000580F681E02DC681D7812A813B81809123
:101DA000D01A9091D11A8217930778F43BC005801E
:101DB000F681E02DC681D7812A813B818091D01A9E
:101DC0009091D11A8217930768F1F8948E010E5FF3
:101DD0001F4FC8010E9425108C899D89009721F012
:101DE000CE010C960E94251078948E8990919E1AAF
:101DF000981710F480939E1A90E09C01220F331FD5
:101E0000220F331F220F331F820F931F8156954ECF
:101E1000B8010E94BF0FE091CC1AF091CD1A8081D9
:101E2000882329F68091D41A9091D51A009709F049
:101E300085CF8091D01A9091D11A9093D31A809324
:101E4000D21A20919E1A822F90E0FC01EE0FFF1F04
:101E5000EE0FFF1FEE0FFF1FE80FF91FE156F54EC3
:101E600030813323D9F4222331F447C0222319F4DB
:101E700020939E1A42C02150822F90E0FC01EE0F69
:101E8000FF1FEE0FFF1FEE0FFF1FE80FF91FE156B8
:101E9000F54E3081332351F320939E1AFC01EE0F4F
:101EA000FF1FEE0FFF1FEE0FFF1F8E0F9F1FFC0186
:101EB000E156F54EA181B28112960D90BC91A02DF4
:101EC000B283A183CF010396A817B90731F4129604
:101ED0008D919C911397928381830180F281E02DF3
:101EE000A681B781B0939D1AA0939C1AED91FC91A5
:101EF0001197CD0157966C911995DF91CF911F9154
:101F00000F91FF90EF90DF90CF9008950F931F9364
:101F1000CF93DF93DC011596ED91FC911697068126
:101F20001781E8012C96CE010E94251083EC9AE1DE
:101F3000BE010E94BF0FE0919C1AF0919D1A81E0B2
:101F4000D80156962C9156979689291708F480E067
:101F5000DF91CF911F910F910895FC010396928319
:101F600081832FEF3FEF348323839683858390878C
:101F7000878310820895FC01118610860895CF93FF
:101F8000DF93EC01FB0189819A81DC0112962D918E
:101F90003C9113973383228329813A8135832483AB
:101FA00012962D913C911397D90115967C936E93BF
:101FB0001497DC0113967C936E9312977A8369834E
:101FC000D187C08788818F5F8883DF91CF91089503
:101FD000CF93DF93AC01EB01288139818FEF2F3F45
:101FE000380721F4FA01A781B08518C0DA011396E9
:101FF000FA0185819681FC0180819181281739073A
:1020000068F012960D90BC91A02D1296ED91FC9166
:102010001397808191812817390798F71296ED91CF
:10202000FC911397FB83EA83D583C483BD83AC8380
:102030001396DC93CE93129759874887FA018081D3
:102040008F5F8083DF91CF910895FC01A281B381DE
:102050008481958115969C938E931497A481B58164
:102060008281938113969C938E931297A085B1855C
:1020700011968D919C9112978E179F0731F4848150
:10208000958112969C938E931197118610868C9150
:1020900081508C938C91089521E1FC01208331972C
:1020A00032E23083FC013297A3E3A083FC01339733
:1020B0006083FC0134977083FC0135971082FC012A
:1020C00036971082FC01379760E86083FC013897EF
:1020D0001082FC0139971082FC013A971082FC01B2
:1020E0003B9762E06083FC013C9763E06083FC0106
:1020F0003D9764E06083FC013E9765E06083FC01EE
:102100003F9766E06083FC01709767E06083FC01A5
:10211000719768E06083FC01729769E06083FC015D
:10212000739760E16083FC0174972083FC017597CD
:1021300022E12083FC01769723E12083FC0177973D
:1021400024E12083FC01789725E12083FC01799725
:1021500026E12083FC017A9727E12083FC017B970D
:1021600028E12083FC017C9729E12083FC017D97F5
:1021700020E22083FC017E9721E22083FC017F97EF
:102180003083FC01B09723E22083FC01B1974083A8
:10219000FC01B2975083FC01B39726E22083FC0137
:1021A000B49727E22083FC01B59728E22083FC0145
:1021B000B69729E22083FC01B79720E32083FC0136
:1021C000B89721E32083899708951092990089EFA9
:1021D000809398008BE080939100E1E7F0E08081AC
:1021E00082608083A091D61AB091D71ACD91CDBFCD
:1021F000DD91DEBFFF91EF91DF91CF91BF91AF9164
:102200009F918F917F916F915F914F913F912F910E
:102210001F910F91FF90EF90DF90CF90BF90AF9004
:102220009F908F907F906F905F904F903F902F90F6
:102230001F900F900CBE0F900BBE0F900FBE0F9013
:10224000089581E0089508950F920FB6F8940F92C3
:102250000BB60F920CB60F921F9211242F923F9241
:102260004F925F926F927F928F929F92AF92BF92A6
:10227000CF92DF92EF92FF920F931F932F933F9392
:102280004F935F936F937F938F939F93AF93BF937E
:10229000CF93DF93EF93FF93A091D61AB091D71A03
:1022A0000DB60D920EB60D920E944D19A091D61A40
:1022B000B091D71ACD91CDBFDD91DEBFFF91EF91E7
:1022C000DF91CF91BF91AF919F918F917F916F914E
:1022D0005F914F913F912F911F910F91FF90EF9040
:1022E000DF90CF90BF90AF909F908F907F906F9036
:1022F0005F904F903F902F901F900F900CBE0F90CB
:102300000BBE0F900FBE0F9008950F920FB6F8946A
:102310000F920BB60F920CB60F921F9211242F92B0
:102320003F924F925F926F927F928F929F92AF9265
:10233000BF92CF92DF92EF92FF920F931F932F9352
:102340003F934F935F936F937F938F939F93AF933D
:10235000BF93CF93DF93EF93FF93A091D61AB091E1
:10236000D71A0DB60D920EB60D920E948D170E94CF
:102370004D19A091D61AB091D71ACD91CDBFDD914C
:10238000DEBFFF91EF91DF91CF91BF91AF919F9110
:102390008F917F916F915F914F913F912F911F91FD
:1023A0000F91FF90EF90DF90CF90BF90AF909F90F4
:1023B0008F907F906F905F904F903F902F901F90E5
:1023C0000F900CBE0F900BBE0F900FBE0F90089594
:1023D0000E9485111895CF93DF93DC01CD91DC919C
:1023E0001197209721F15C964C915C9716962D9150
:1023F0003C911797240F311D17963C932E931697F7
:102400001296ED91FC9113972E173F0720F0179627
:10241000DC93CE93169716963C91169717962C91AF
:10242000862F972F632F722F50E00E942D1FDF9170
:10243000CF9108950F931F93CF93DF93EC010FB6C5
:10244000F8940F928E8D1816C4F48989882329F484
:1024500014C08989882321F410C08E010F5E1F4F9C
:10246000C8010E94261A882311F00E94B71A8E8D87
:1024700081508E8F8E8D181664F38FEF8E8F0F9094
:102480000FBE0FB6F8940F928D8D1816C4F4888580
:10249000882329F414C08885882321F410C08E0174
:1024A000085F1F4FC8010E94261A882311F00E945E
:1024B000B71A8D8D81508D8F8D8D181664F38FEF27
:1024C0008D8F0F900FBEDF91CF911F910F910895C7
:1024D000CF93DF93EC012C8D222359F488819981CD
:1024E0000097E1F58A819B810E94331B1B821A822F
:1024F00035C04423B9F48C819D81422F50E00E9465
:102500002D1F2C8D8C819D81820F911D9D838C832D
:102510002A813B818217930708F1888199819D83E5
:102520008C831CC08E819F81422F50E00E942D1F02
:102530004C8D50E0509541955F4F8E819F81840F67
:10254000951F9F838E83288139818217930730F4EA
:102550008A819B81480F591F5F834E838A8D8F5FCD
:102560008A8FDF91CF910895CF93DF93EC010FB65F
:10257000F8940F92488159812B8D30E0EC8DF0E07A
:102580002E9FC0012F9F900D3E9F900D1124840F10
:10259000951F9B838A831A8E5D834C83C9010197A3
:1025A000E89F9001E99F300DF89F300D1124240F12
:1025B000351F3F832E838FEF8D8F8E8F662361F4BF
:1025C0008885882389F0CE0108960E94261A8130DA
:1025D00059F40E94241108C0CE0108960E94AD0F44
:1025E000CE0141960E94AD0F0F900FBE81E0DF91AA
:1025F000CF9108950F931F93CF93DF93182F062F3A
:102600008823F9F08FE190E00E94AF0CEC01009775
:10261000D9F0019FC001112401960E94AF0C99834B
:102620008883009741F01B8F0C8FCE0161E00E94E0
:10263000B412CE010BC0CE010E944F0D80E090E09D
:1026400005C080E090E002C080E090E0DF91CF9193
:102650001F910F9108958F929F92BF92CF92DF9218
:10266000EF92FF920F931F93CF93DF9300D00F92BF
:102670000F92CDB7DEB78C014B015D834C83B22E38
:10268000FF24EE24E394CC24DD246894C3F8C80E20
:10269000D91E0FB6F8940F92F801928D838D98177A
:1026A000A8F4C801B4014B2D0E946812F801818979
:1026B000882341F0C80141960E94261A813011F406
:1026C0000E9424110F900FBE81E052C08C819D8129
:1026D000009721F40F900FBE80E04AC0FF2029F43C
:1026E000CE0101960E946E1AFE2C0F900FBE0E9422
:1026F00075170FB6F8940F92F801858D8F3F09F486
:10270000158EF801868D8F3F09F4168E0F900FBE3F
:10271000CE010196BE016C5F7F4F0E94791A88231B
:1027200009F50FB6F8940F92F801928D0F900FBE35
:10273000F801838D981781F46C817D81C6010E9418
:10274000FA19C8010E941A120E945318882309F02E
:10275000A0CF0E9424119DCFC8010E941A120E948E
:10276000531897CFC8010E941A120E94531880E094
:102770000F900F900F900F900F90DF91CF911F91BE
:102780000F91FF90EF90DF90CF90BF909F908F9030
:102790000895CF93DF938FE190E00E94AF0CEC019E
:1027A0000097F9F01B821A82198218821D821C82FE
:1027B0001F821E821A8E81E08B8F1C8E8FEF8D8F71
:1027C0008E8FCE0108960E94AD0FCE0141960E94D9
:1027D000AD0FCE0160E070E040E050E020E00E94EC
:1027E0002B138C2F9D2FDF91CF9108950F931F9363
:1027F000CF93DF93EC018A019A8D8B8D9817E0F4CB
:10280000CE01422F0E9468128E8D8F3F81F48989FC
:102810008823A1F0CE0141960E94261A882381F0D8
:102820000115110579F081E0F80180830CC08E8DCF
:102830008F5F8E8F81E007C080E005C081E003C01C
:1028400081E001C081E0DF91CF911F910F91089548
:102850008F929F92BF92CF92DF92EF92FF920F934F
:102860001F93CF93DF9300D00F920F92CDB7DEB7B7
:102870008C014B015D834C83B22EFF24EE24E39444
:102880000F2EF1E1CF2EDD24F02DC80ED91E0FB68C
:10289000F8940F92F801828D8823A1F1E680F780E9
:1028A000C801B4010E94EB11BB20D1F4F801828D64
:1028B0008150828F80819181009729F40E94D41ADF
:1028C000F80193838283F80180858823B9F0C801D9
:1028D00008960E94261A813089F40E9424110EC0A5
:1028E000F801F782E6828189882341F0C801419688
:1028F0000E94261A882311F00E9424110F900FBE07
:1029000081E05FC08C819D81009721F40F900FBE04
:1029100080E057C0FF2029F4CE0101960E946E1A74
:10292000FE2C0F900FBE0E9475170FB6F8940F92F1
:10293000F801858D8F3F09F4158EF801868D8F3F44
:1029400009F4168E0F900FBECE010196BE016C5F8A
:102950007F4F0E94791A882371F50FB6F8940F9271
:10296000F801828D0F900FBE8823F9F4F801808161
:102970009181009751F40FB6F8940F92F80182817B
:1029800093810E94D91A0F900FBE6C817D81C60180
:102990000E94FA19C8010E941A120E945318882333
:1029A00009F075CF0E94241172CFC8010E941A123B
:1029B0000E9453186CCFC8010E941A120E9453182B
:1029C00080E00F900F900F900F900F90DF91CF91BC
:1029D0001F910F91FF90EF90DF90CF90BF909F904D
:1029E0008F9008950F931F93CF93DF93EC018A018B
:1029F0008A8D8823F1F0CE010E94EB118A8D8150DF
:102A00008A8F8D8D8F3F81F488858823A1F0CE0138
:102A100008960E94261A882381F00115110579F085
:102A200081E0F80180830CC08D8D8F5F8D8F81E0F8
:102A300007C080E005C081E003C081E001C081E003
:102A4000DF91CF911F910F9108950FB6F8940F92D7
:102A5000FC01828D0F900FBE0895FC01828D0895B8
:102A6000CF93DF93EC01888199810E944F0DCE01B5
:102A70000E944F0DDF91CF910895FC01928D81E06E
:102A8000911180E00895FC01228D81E0938D29133E
:102A900080E00895CF93DF93EC01E091D61AF09196
:102AA000D71A938382838091DE1A9091DF1AC81718
:102AB000D90768F48091E11A9091E21A6091D61AD0
:102AC0007091D71A6E5F7F4F0E94E80F17C08091F8
:102AD000E31A9091E41A6091D61A7091D71A6E5F3A
:102AE0007F4F0E94E80F8091610290916202C817A7
:102AF000D90720F4D0936202C0936102DF91CF9195
:102B00000895C7EEDAE188818230E8F30E9424114B
:102B1000FACF4F925F926F927F928F929F92BF9265
:102B2000CF92DF92EF92FF920F931F93CF93DF9399
:102B30002C014B01EA013901B02E8AE290E00E949B
:102B4000AF0C8C01009709F4E3C0C114D10409F063
:102B5000F4C0CE010E94AF0C6C01F801908F878BFE
:102B6000009729F4C8010E944F0D8FEFD6C0C6010F
:102B700065EA70E0AE010E94361F9E012150304090
:102B8000F8018789908D6C01C20ED31EC801499649
:102B9000B40140E150E00E943D1FF80110A6CB2D8A
:102BA000F3E0FB1508F4C3E0F801C68BC1A7882445
:102BB0009924689481F8800E911EC4010E94BB0F75
:102BC000C8010C960E94BB0FF8011187008784E0B2
:102BD00090E08C1B910995878487138B028BC6012B
:102BE000B201A3010E944C10F80191838083E1148B
:102BF000F10419F0F701118300830FB6F8940F92D6
:102C00008091E01A8F5F8093E01A8091D61A90919C
:102C1000D71A0097D9F51093D71A0093D61A809136
:102C2000E01A813009F041C0C0E0D0E0CE01880F49
:102C3000991F880F991F880F991F8C0F9D1F89510D
:102C4000954E0E94AD0F2196C430D10579F7CBE0A7
:102C5000DBE1CE010E94AD0F0F2EF4E1EF2EFBE180
:102C6000FF2EF02DC7010E94AD0F8DE19BE10E9468
:102C7000AD0F86E29BE10E94AD0FD093E41AC093A2
:102C8000E31AF092E21AE092E11A0FC08091DC1A86
:102C9000882359F4E091D61AF091D71A8689B8168C
:102CA00020F01093D71A0093D61AF80186899091D4
:102CB000E51A981710F48093E51A9091E61A9F5F31
:102CC0009093E61A9091DD1A981710F48093DD1A0C
:102CD00090E09C01220F331F220F331F220F331F5E
:102CE000820F931F8951954EB4010E94BF0F0F9020
:102CF0000FBE8091DC1A882369F0E091D61AF0911A
:102D0000D71A86898B1540F40E94241181E005C0F2
:102D10008FEF03C081E001C081E0DF91CF911F916F
:102D20000F91FF90EF90DF90CF90BF909F908F908A
:102D30007F906F905F904F900895FC01D08EC78A6E
:102D400016CFFC01828593852BE18632920761F4D0
:102D5000248935898BE12D31380741F081E0211537
:102D6000310529F080E0089580E0089580E008951D
:102D70000F931F93CF93DF93EC010097B9F18091EC
:102D8000D61A9091D71AC817D90781F10FB6F894BF
:102D90000F92CE010E94A116813031F58E010E5F97
:102DA0001F4FC8010E9425108E899091DD1A981737
:102DB00010F48093DD1A90E09C01220F331F220F44
:102DC000331F220F331F820F931F8951954EB80175
:102DD0000E94BF0FE091D61AF091D71A9E8986897A
:102DE000981710F00E9424110F900FBEDF91CF9121
:102DF0001F910F910895EF92FF921F93CF93DF934E
:102E0000EC010E94A1168130B9F58091DB1A88236C
:102E100051F5E091D61AF091D71A11E09E89868972
:102E2000981708F410E0EE24FF246894E1F8EC0E03
:102E3000FD1EC7010E9425108E899091DD1A9817FA
:102E400010F48093DD1A90E09C01220F331F220FB3
:102E5000331F220F331F820F931F8951954EB701E5
:102E60000E94BF0F0AC0BE01645F7F4F8DE19BE1EE
:102E70000E94BF0F10E001C010E0812FDF91CF91C1
:102E80001F91FF90EF900895AF92BF92CF92DF9283
:102E9000EF92FF920F9381E895E16CE572E045E5D2
:102EA00050E020E030E000E0EE24FF24CC24DD24DC
:102EB000AA24BB240E948915813049F4F894809398
:102EC000DC1A1092DF1A1092DE1A0E94E5100F91A0
:102ED000FF90EF90DF90CF90BF90AF900895F8945F
:102EE0001092DC1A0E94231108958091DB1A8F5FE3
:102EF0008093DB1A08950FB6F8940F928091DE1A32
:102F00009091DF1A0F900FBE08958091DE1A909174
:102F1000DF1A08958091E01A08950F931F93CF93BD
:102F2000DF938091DB1A882309F0B3C08091DE1A09
:102F30009091DF1A01969093DF1A8093DE1A8091A8
:102F4000DE1A9091DF1A009799F58091E31A90911B
:102F5000E41A2091E11A3091E21A3093E41A209396
:102F6000E31A9093E21A8093E11A8091D81A8F5F46
:102F70008093D81AE091E31AF091E41A80818823B3
:102F800039F48FEF9FEF909362028093610210C03B
:102F9000E091E31AF091E41A0580F681E02D0680B5
:102FA000F781E02D82819381909362028093610288
:102FB0002091DE1A3091DF1A8091610290916202B5
:102FC0002817390708F46AC0E091E31AF091E41A6F
:102FD0008081882399F0E091E31AF091E41A05804A
:102FE000F681E02DC681D7818A819B812091DE1AEE
:102FF0003091DF1A28173907F8F419C08FEF9FEFC7
:10300000909362028093610249C0E091E31AF091CB
:10301000E41A0580F681E02DC681D7818A819B81E3
:103020002091DE1A3091DF1A2817390728F490937F
:1030300062028093610232C08E010E5F1F4FC80191
:103040000E9425108C899D89009721F0CE010C9655
:103050000E9425108E899091DD1A981710F48093A4
:10306000DD1A90E09C01220F331F220F331F220F25
:10307000331F820F931F8951954EB8010E94BF0FD5
:10308000E091E31AF091E41A8081882309F0BDCF22
:10309000B5CF8091DA1A8F5F8093DA1ADF91CF91E2
:1030A0001F910F910895AF92BF92CF92DF92EF924E
:1030B000FF920F931F93CF93DF930FB6F8940F9265
:1030C0008091DB1A81508093DB1A8091DB1A882370
:1030D00009F069C08091E01A882381F567C0D601A4
:1030E000ED91FC91C681D781CE010C960E942510EE
:1030F0008E010E5F1F4FC8010E9425108E8990918E
:10310000DD1A981710F48093DD1A90E09C01220FCD
:10311000331F220F331F220F331F820F931F89513A
:10312000954EB8010E94BF0FE091D61AF091D71AC0
:103130009E898689981788F0BA2C0FC0BB240F2E61
:10314000FDE1EF2EFBE1FF2EF02D0F2EF2E2CF2E50
:10315000FBE1DF2EF02DAA24A394F70180818823C0
:1031600009F0BDCF8091DA1A882381F08091DA1AB4
:10317000882399F00E948D178091DA1A81508093EC
:10318000DA1A8091DA1A8823A9F707C0F1E0BF168E
:1031900021F08091D91A813041F41092D91A0E94FD
:1031A000241181E003C080E001C080E00F900FBED9
:1031B000DF91CF911F910F91FF90EF90DF90CF9013
:1031C000BF90AF900895CF93DF93EC010097B1F0DB
:1031D0000E9475178091DE1A9091DF1AC80FD91FCF
:1031E0008091D61A9091D71A02960E942510CE018E
:1031F0000E944A150E945318882311F40E9424113A
:10320000DF91CF9108950F931F93CF93DF938C019C
:10321000EB010E947517F80180819181C80FD91FB9
:103220002091DE1A3091DF1A2817390768F4C81781
:10323000D90750F58091DE1A9091DF1AD183C083AF
:103240008C179D07B0F40BC0C817D907C8F0809140
:10325000DE1A9091DF1A8C179D0790F015C08091AF
:10326000D61A9091D71A02960E942510CE010E947C
:103270004A150E945318882359F40E94241108C04B
:10328000F801D183C083EBCFF801D183C083F1CFA4
:10329000DF91CF911F910F9108958091DB1A8823C0
:1032A00099F48091DD1A90E0FC01EE0FFF1FEE0F04
:1032B000FF1FEE0FFF1F8E0F9F1FFC01E951F54E00
:1032C0008081882329F01BC081E08093D91A08955A
:1032D0008091DD1A81508093DD1A8091DD1A90E093
:1032E000FC01EE0FFF1FEE0FFF1FEE0FFF1F8E0FF3
:1032F0009F1FFC01E951F54E8081882349F380919D
:10330000DD1A90E0FC01EE0FFF1FEE0FFF1FEE0F26
:10331000FF1FE80FF91FE951F54EA181B281129606
:103320000D90BC91A02DB283A183CF010396A81765
:10333000B90731F412968D919C91139792838183F2
:103340000180F281E02D868197819093D71A809336
:10335000D61A0895EF92FF920F931F93CF93DF93A6
:103360007C010FB6F8940F928091D61A9091D71ADB
:10337000E816F90621F0E114F10441F402C0EE244C
:10338000FF24C091D61AD091D71A01C0E7018E014F
:103390000E5F1F4FC8010E9425108C899D890097E0
:1033A00021F0CE010C960E94251086E29BE1B80127
:1033B0000E94BF0F0F900FBEE114F104A1F48091A1
:1033C000DC1A882319F00E9424110DC09091261B4D
:1033D0008091E01A981729F41092D71A1092D61AF1
:1033E00002C00E944D19DF91CF911F910F91FF9064
:1033F000EF900895CF93DF93EB016091D61A70910F
:10340000D71A645F7F4F0E94E80F8091D61A90917F
:10341000D71A02960E9425108FEFCF3FD80759F494
:103420006091D61A7091D71A6E5F7F4F86E29BE14A
:103430000E94BF0F08C08091DE1A9091DF1A8C0F96
:103440009D1F0E944A15DF91CF9108950F931F93FE
:10345000CF93DF93DC011596ED91FC9116970681D1
:103460001781E8012C96CE010E9425108091DB1A6D
:103470008823E9F4E8012296CE010E942510F80184
:1034800086899091DD1A981710F48093DD1A90E0E8
:103490009C01220F331F220F331F220F331F820F75
:1034A000931F8951954EBE010E94BF0F05C08DE14B
:1034B0009BE1BE010E94BF0FE091D61AF091D71A8E
:1034C00081E0D80156962C9156979689291708F4D1
:1034D00080E0DF91CF911F910F910895FC018091C1
:1034E000D81A80838091DE1A9091DF1A92838183AB
:1034F0000895FC01DB010FB6F8940F924D915C9199
:1035000011976FEF4F3F560751F18091D81A908174
:10351000981749F02091DE1A3091DF1A818192814B
:1035200028173907F0F48091DE1A9091DF1A218173
:103530003281821B930B84179507A8F48091DE1AC1
:103540009091DF1AB901681B790BCB01840F951F8D
:103550008D939C93CF010E946E1A80E005C080E09D
:1035600003C081E001C081E00F900FBE089581E0AB
:103570008093D91A0895009729F4E091D61AF09112
:10358000D71A01C0FC010788F08DE02D8081853AB3
:1035900041F4319680E090E001962191253AE1F3E3
:1035A000089580E090E008958091D61A9091D71AFE
:1035B00008950F931F93CF93DF93EC01009709F4C5
:1035C0004DC08E89E091D61AF091D71A9689891745
:1035D00008F044C0E091D61AF091D71A968924E0F9
:1035E00030E0291B31093D872C8790E09C01220F98
:1035F000331F220F331F220F331F820F931F895156
:10360000954E2A853B852817390711F58E010E5FE7
:103610001F4FC8010E942510E091D61AF091D71AC9
:1036200086898E8B9091DD1A981710F48093DD1A9D
:1036300090E09C01220F331F220F331F220F331FF4
:10364000820F931F8951954EB8010E94BF0F06C08B
:10365000E091D61AF091D71A86898E8BDF91CF919F
:103660001F910F9108950F931F93CF93DF93EC0158
:10367000009749F19E8989A5981729F18E010E5F5F
:103680001F4FC8010E94251049A54E8B242F30E002
:1036900084E090E0821B930B9D878C878091DD1ADC
:1036A000841710F44093DD1AC901880F991F880F01
:1036B000991F880F991F280F391FC9018951954EED
:1036C000B8010E94BF0FDF91CF911F910F91089514
:1036D000CF92DF92EF92FF926A017B01689413F818
:1036E000F694E794D794C7941694D1F79C0140E0E0
:1036F00050E0C701B6010E94921EDA01C90101978C
:10370000A109B109492F5A2F6B2F77274093C50084
:103710008093C40088E18093C10086E08093C2005A
:10372000E0ECF0E080818D7F808386E961E040E01D
:103730000E94FA129093301B80932F1BFF90EF9002
:10374000DF90CF900895CF93DF930F92CDB7DEB780
:10375000898380912F1B9091301BBE016F5F7F4F3B
:1037600040E050E020E00E942B130F90DF91CF91BA
:103770000895E0ECF0E0908195FFFDCF8093C600C6
:103780000895E0ECF0E080818823ECF78091C6009A
:103790000895CF93DF930F92CDB7DEB780912F1BA3
:1037A0009091301BBE016F5F7F4F4FEF5FEF20E0C6
:1037B0000E94281489810E94B91BF0CF5058BB2762
:1037C000AA270ED0A0C169D130F06ED120F031F41B
:1037D0009F3F11F41EF45EC10EF4E095E7FB54C167
:1037E000E92FB3D180F3BA176207730784079507EF
:1037F00018F071F49EF5CBC10EF4E0950B2EBA2FA4
:10380000A02D0B01B90190010C01CA01A0011124E6
:10381000FF27591B99F0593F50F4503E68F11A1692
:10382000F040A22F232F342F4427585FF3CF469523
:1038300037952795A795F0405395C9F77EF41F1645
:10384000BA0B620B730B840BBAF09150A1F0FF0F0F
:10385000BB1F661F771F881FC2F70EC0BA0F621FFB
:10386000731F841F48F4879577956795B795F795EB
:103870009E3F08F0B3CF9395880F08F09927EE0F7D
:10388000979587950895DCD008F481E0089514D1C8
:10389000E3954AC10CD037C107D140F0FED030F0DB
:1038A00021F45F3F19F0F0C0511172C1F3C04DD146
:1038B00098F39923C9F35523B1F3951B550BBB27F7
:1038C000AA2762177307840738F09F5F5F4F220FA4
:1038D000331F441FAA1FA9F333D00E2E3AF0E0E89D
:1038E00030D091505040E695001CCAF729D0FE2FE9
:1038F00027D0660F771F881FBB1F2617370748077B
:10390000AB07B0E809F0BB0B802DBF01FF27935830
:103910005F4F2AF09E3F510568F0B6C039C15F3F46
:10392000ECF3983EDCF3869577956795B795F79518
:103930009F5FC9F7880F911D9695879597F9089510
:10394000E1E0660F771F881FBB1F621773078407AC
:10395000BA0720F0621B730B840BBA0BEE1F88F7BB
:10396000E095089504D06894B11112C10895F5D07E
:1039700088F09F5790F0B92F9927B751A0F0D1F058
:10398000660F771F881F991F1AF0BA95C9F712C0E2
:10399000B13081F0FCD0B1E00895F9C0672F782FE5
:1039A0008827B85F39F0B93FCCF38695779567954E
:1039B000B395D9F73EF490958095709561957F4FBA
:1039C0008F4F9F4F0895E89409C097FB3EF4909560
:1039D0008095709561957F4F8F4F9F4F9923A9F0E8
:1039E000F92F96E9BB279395F69587957795679577
:1039F000B795F111F8CFFAF4BB0F11F460FF1BC0BB
:103A00006F5F7F4F8F4F9F4F16C0882311F096E94D
:103A100011C0772321F09EE8872F762F05C06623FB
:103A200071F096E8862F70E060E02AF09A95660FB4
:103A3000771F881FDAF7880F9695879597F908956D
:103A4000990F0008550FAA0BE0E8FEEF16161706AF
:103A5000E807F907C0F012161306E407F50798F017
:103A6000621B730B840B950B39F40A2661F0232B30
:103A7000242B252B21F408950A2609F4A140A695AC
:103A80008FEF811D811D089597F99F6780E870E091
:103A900060E008959FEF80EC089500240A941616C4
:103AA000170618060906089500240A94121613062C
:103AB000140605060895EECF50D0E8F3E894E0E050
:103AC000BB279F57F0F02AED3FE049EC06C0EE0F10
:103AD000BB0F661F771F881F28F0B23A6207730773
:103AE000840728F0B25A620B730B840BE3959A9506
:103AF00072F7803830F49A95BB0F661F771F881FC6
:103B0000D2F79048BAC0092E0394000C11F4882310
:103B100052F0BB0F40F4BF2B11F460FF04C06F5F85
:103B20007F4F8F4F9F4F0895EF93E0FF06C0A2EAAB
:103B30002AED3FE049EC5FEB53DEE5DF0F900394A5
:103B400001FC9058E4EEF0E0A4C057FD9058440FFB
:103B5000551F59F05F3F71F04795880F97FB991FEC
:103B600061F09F3F79F087950895121613061406A9
:103B7000551FF2CF4695F1DF08C016161706180636
:103B8000991FF1CF86957105610508940895E89411
:103B9000BB2766277727CB0197F9089551DF08F4F3
:103BA0008FEF08950BD0AFCF78DF28F07DDF18F0CE
:103BB000952309F069CF6ECF1124EACFC6DFA0F3B9
:103BC000959FD1F3950F50E0551F629FF001729FB2
:103BD000BB27F00DB11D639FAA27F00DB11DAA1FD1
:103BE000649F6627B00DA11D661F829F2227B00D1E
:103BF000A11D621F739FB00DA11D621F839FA00DA9
:103C0000611D221F749F3327A00D611D231F849FF8
:103C1000600D211D822F762F6A2F11249F5750404F
:103C20008AF0E1F088234AF0EE0FFF1FBB1F661FEA
:103C3000771F881F91505040A9F79E3F510570F0A3
:103C400023CFA6CF5F3FECF3983EDCF386957795C4
:103C50006795B795F795E7959F5FC1F7FE2B880F9E
:103C6000911D9695879597F908959F9325DF0F905D
:103C700007FCEE5F59CF9F3F31F0915020F48795BC
:103C800077956795B795880F911D9695879597F9C4
:103C900008959F938F937F936F93FF93EF939B016F
:103CA000AC0180DFEF91FF9105D02F913F914F91B3
:103CB0005F9178CFDF93CF931F930F93FF92EF9293
:103CC000DF927B018C01689405C0DA2EEF0176DF6C
:103CD000FE01E894A5912591359145915591AEF35A
:103CE000EF017EDDFE019701A801DA9479F7DF90FC
:103CF000EF90FF900F911F91CF91DF91089597FB67
:103D0000092E07260AD077FD04D02ED006D0002039
:103D10001AF4709561957F4F0895F6F79095819507
:103D20009F4F0895A1E21A2EAA1BBB1BFD010DC0D7
:103D3000AA1FBB1FEE1FFF1FA217B307E407F5075B
:103D400020F0A21BB30BE40BF50B661F771F881F37
:103D5000991F1A9469F760957095809590959B01CD
:103D6000AC01BD01CF010895AA1BBB1B51E107C0E7
:103D7000AA1FBB1FA617B70710F0A61BB70B881FFB
:103D8000991F5A95A9F780959095BC01CD0108958A
:103D90008F929F92AF92BF92CF92DF92EF92FF925B
:103DA000CF93DF93EC0188819981AA81BB81009731
:103DB000A105B10521F484E299EDABE5B7E0BC01C2
:103DC000CD012DE133EF41E050E00E946B1F49012E
:103DD0005A0127EA31E440E050E00E944C1F6B0199
:103DE0007C01C501B4012CEE34EF4FEF5FEF0E9470
:103DF0004C1FDC01CB01C80ED91EEA1EFB1EF7FECC
:103E000008C08FEF9FEFAFEFBFE7C80ED91EEA1EC5
:103E1000FB1EC882D982EA82FB82C6019F77DF91AE
:103E2000CF91FF90EF90DF90CF90BF90AF909F9099
:103E30008F9008950E94C81E089583E692E00E9424
:103E4000C81E0895A0E0B0E08093630290936402DE
:103E5000A0936502B09366020895FB01DC0102C0E5
:103E600001900D9241505040D8F70895DC0101C0F7
:103E70006D9341505040E0F70895FB01DC01415043
:103E8000504048F001900D920020C9F701C01D92EA
:103E900041505040E0F70895629FD001739FF001B8
:103EA000829FE00DF11D649FE00DF11D929FF00DCA
:103EB000839FF00D749FF00D659FF00D9927729F01
:103EC000B00DE11DF91F639FB00DE11DF91FBD018C
:103ED000CF011124089597FB092E05260ED057FD1A
:103EE00004D020DF0AD0001C38F45095409530955E
:103EF00021953F4F4F4F5F4F0895F6F7909580956E
:103F0000709561957F4F8F4F9F4F0895F894FFCF25
:103F10006900620075006400770073746172732E2B
:103F2000706E6700736869702E706E670062756CE2
:103F30006C65742E706E670077696E2E706E670008
:103F40006C6F73652E706E6700617374312E706EC6
:103F50006700617374322E706E6700617374332E64
:103F6000706E6700390242024B02001849444C450A
:083F700000FFFF01000000004A
:00000001FF
